{
  "contractName": "Collector",
  "abi": [
    {
      "inputs": [],
      "payable": false,
      "stateMutability": "nonpayable",
      "type": "constructor"
    },
    {
      "anonymous": false,
      "inputs": [
        {
          "indexed": true,
          "internalType": "address",
          "name": "_from",
          "type": "address"
        }
      ],
      "name": "Addr",
      "type": "event"
    },
    {
      "anonymous": false,
      "inputs": [
        {
          "indexed": false,
          "internalType": "string",
          "name": "started",
          "type": "string"
        }
      ],
      "name": "done",
      "type": "event"
    },
    {
      "anonymous": false,
      "inputs": [
        {
          "indexed": true,
          "internalType": "address",
          "name": "_from",
          "type": "address"
        }
      ],
      "name": "reg",
      "type": "event"
    },
    {
      "constant": true,
      "inputs": [
        {
          "internalType": "address",
          "name": "",
          "type": "address"
        }
      ],
      "name": "balance",
      "outputs": [
        {
          "internalType": "uint256",
          "name": "",
          "type": "uint256"
        }
      ],
      "payable": false,
      "stateMutability": "view",
      "type": "function"
    },
    {
      "constant": true,
      "inputs": [],
      "name": "owner",
      "outputs": [
        {
          "internalType": "address",
          "name": "",
          "type": "address"
        }
      ],
      "payable": false,
      "stateMutability": "view",
      "type": "function"
    },
    {
      "constant": true,
      "inputs": [],
      "name": "regFee",
      "outputs": [
        {
          "internalType": "uint256",
          "name": "",
          "type": "uint256"
        }
      ],
      "payable": false,
      "stateMutability": "view",
      "type": "function"
    },
    {
      "constant": false,
      "inputs": [],
      "name": "register",
      "outputs": [],
      "payable": true,
      "stateMutability": "payable",
      "type": "function"
    },
    {
      "constant": false,
      "inputs": [
        {
          "internalType": "uint256",
          "name": "transferAmount",
          "type": "uint256"
        }
      ],
      "name": "payArtist",
      "outputs": [
        {
          "internalType": "bool",
          "name": "success",
          "type": "bool"
        }
      ],
      "payable": true,
      "stateMutability": "payable",
      "type": "function"
    }
  ],
  "bytecode": "0x608060405234801561001057600080fd5b50336000806101000a81548173ffffffffffffffffffffffffffffffffffffffff021916908373ffffffffffffffffffffffffffffffffffffffff16021790555068056bc75e2d63100000600181905550610519806100706000396000f3fe60806040526004361061004a5760003560e01c80631aa3a0081461004f5780638da5cb5b146100595780638fff20f3146100b0578063cdbaa239146100db578063e3d670d714610121575b600080fd5b610057610186565b005b34801561006557600080fd5b5061006e61027b565b604051808273ffffffffffffffffffffffffffffffffffffffff1673ffffffffffffffffffffffffffffffffffffffff16815260200191505060405180910390f35b3480156100bc57600080fd5b506100c56102a0565b6040518082815260200191505060405180910390f35b610107600480360360208110156100f157600080fd5b81019080803590602001909291905050506102a6565b604051808215151515815260200191505060405180910390f35b34801561012d57600080fd5b506101706004803603602081101561014457600080fd5b81019080803573ffffffffffffffffffffffffffffffffffffffff169060200190929190505050610453565b6040518082815260200191505060405180910390f35b68056bc75e2d6310000034146101e7576040517f08c379a000000000000000000000000000000000000000000000000000000000815260040180806020018281038252602281526020018061049e6022913960400191505060405180910390fd5b600154600260003073ffffffffffffffffffffffffffffffffffffffff1673ffffffffffffffffffffffffffffffffffffffff168152602001908152602001600020600082825401925050819055503373ffffffffffffffffffffffffffffffffffffffff167f322f62ba7367d81f23b1b1e83305cf396233ba781ce723ca4d5866399664185a60405160405180910390a2565b6000809054906101000a900473ffffffffffffffffffffffffffffffffffffffff1681565b60015481565b60003073ffffffffffffffffffffffffffffffffffffffff167f907b7b51ded74355e91bcb0688b1df6e78614ebca5da66514d256a86e29b9a6560405160405180910390a281471015610344576040517f08c379a000000000000000000000000000000000000000000000000000000000815260040180806020018281038252603281526020018061046c6032913960400191505060405180910390fd5b81341461039c576040517f08c379a00000000000000000000000000000000000000000000000000000000081526004018080602001828103825260258152602001806104c06025913960400191505060405180910390fd5b3373ffffffffffffffffffffffffffffffffffffffff166108fc349081150290604051600060405180830381858888f193505050501580156103e2573d6000803e3d6000fd5b507e467151cfd444517705ab188779d73a34223ae980dd9b7cbcc0121e339f3f426040518080602001828103825260078152602001807f537563636573730000000000000000000000000000000000000000000000000081525060200191505060405180910390a160019050919050565b6002602052806000526040600020600091509050548156fe596f752068617665206e6f20656e6f7567682062616c616e636520696e20636f6e747261637420746f207472616e73666572596f7520617265206e6f74207472736e7366657272696e672031303020636f696e73596f7520617265206e6f74207472616e7366657272696e6720656e6f7567682076616c7565a265627a7a723158201560dc665c09169917a4ae1000ea330fc17e4ec9ad2bbc94e2f759b9f98d8c5964736f6c63430005100032",
  "source": "pragma solidity >=0.4.21 <0.7.0;\n\ncontract Collector {\n    address public owner;\n    // address payable[] public artists;\n    uint256 public regFee;\n\n    mapping(address => uint256) public balance;\n\n    constructor() public {\n        owner = msg.sender;\n        regFee = 100 ether;\n    }\n\n    event reg(address indexed _from);\n\n    function register() external payable {\n        require(msg.value == 100 ether, \"You are not trsnsferring 100 coins\");\n        balance[address(this)] += regFee;\n        emit reg(msg.sender);\n    }\n\n    event done(string started);\n    event Addr(address indexed _from);\n\n    function payArtist(uint256 transferAmount)\n        external\n        payable\n        returns (bool success)\n    {\n        emit Addr(address(this));\n        require(\n            address(this).balance >= transferAmount,\n            \"You have no enough balance in contract to transfer\"\n        );\n        require(\n            msg.value == transferAmount,\n            \"You are not transferring enough value\"\n        );\n        msg.sender.transfer(msg.value);\n        emit done(\"Success\");\n        return true;\n    }\n}\n",
  "sourcePath": "/Users/praneethg/Bitify/music-app/contracts/Collector.sol",
  "compiler": {
    "name": "solc",
    "version": "0.5.16+commit.9c3226ce.Emscripten.clang"
  },
  "schemaVersion": "3.0.23",
  "updatedAt": "2020-06-18T07:53:42.126Z",
  "devdoc": {
    "methods": {}
  },
  "userdoc": {
    "methods": {}
  }
}