{
  "contractName": "Collector",
  "abi": [
    {
      "inputs": [],
      "payable": false,
      "stateMutability": "nonpayable",
      "type": "constructor"
    },
    {
      "anonymous": false,
      "inputs": [
        {
          "indexed": true,
          "internalType": "address",
          "name": "_from",
          "type": "address"
        }
      ],
      "name": "reg",
      "type": "event"
    },
    {
      "constant": true,
      "inputs": [
        {
          "internalType": "address",
          "name": "",
          "type": "address"
        }
      ],
      "name": "balance",
      "outputs": [
        {
          "internalType": "uint256",
          "name": "",
          "type": "uint256"
        }
      ],
      "payable": false,
      "stateMutability": "view",
      "type": "function"
    },
    {
      "constant": true,
      "inputs": [],
      "name": "owner",
      "outputs": [
        {
          "internalType": "address",
          "name": "",
          "type": "address"
        }
      ],
      "payable": false,
      "stateMutability": "view",
      "type": "function"
    },
    {
      "constant": true,
      "inputs": [],
      "name": "regFee",
      "outputs": [
        {
          "internalType": "uint256",
          "name": "",
          "type": "uint256"
        }
      ],
      "payable": false,
      "stateMutability": "view",
      "type": "function"
    },
    {
      "constant": false,
      "inputs": [],
      "name": "register",
      "outputs": [],
      "payable": true,
      "stateMutability": "payable",
      "type": "function"
    },
    {
      "constant": false,
      "inputs": [
        {
          "internalType": "address payable[]",
          "name": "artists",
          "type": "address[]"
        }
      ],
      "name": "distribute",
      "outputs": [],
      "payable": false,
      "stateMutability": "nonpayable",
      "type": "function"
    }
  ],
  "bytecode": "0x608060405234801561001057600080fd5b50336000806101000a81548173ffffffffffffffffffffffffffffffffffffffff021916908373ffffffffffffffffffffffffffffffffffffffff16021790555068056bc75e2d63100000600181905550610381806100706000396000f3fe60806040526004361061004a5760003560e01c80631aa3a0081461004f5780636138889b146100595780638da5cb5b146100df5780638fff20f314610136578063e3d670d714610161575b600080fd5b6100576101c6565b005b34801561006557600080fd5b506100dd6004803603602081101561007c57600080fd5b810190808035906020019064010000000081111561009957600080fd5b8201836020820111156100ab57600080fd5b803590602001918460208302840111640100000000831117156100cd57600080fd5b909192939192939050505061026f565b005b3480156100eb57600080fd5b506100f4610309565b604051808273ffffffffffffffffffffffffffffffffffffffff1673ffffffffffffffffffffffffffffffffffffffff16815260200191505060405180910390f35b34801561014257600080fd5b5061014b61032e565b6040518082815260200191505060405180910390f35b34801561016d57600080fd5b506101b06004803603602081101561018457600080fd5b81019080803573ffffffffffffffffffffffffffffffffffffffff169060200190929190505050610334565b6040518082815260200191505060405180910390f35b68056bc75e2d6310000034146101db57600080fd5b600154600260003073ffffffffffffffffffffffffffffffffffffffff1673ffffffffffffffffffffffffffffffffffffffff168152602001908152602001600020600082825401925050819055503373ffffffffffffffffffffffffffffffffffffffff167f322f62ba7367d81f23b1b1e83305cf396233ba781ce723ca4d5866399664185a60405160405180910390a2565b60008090505b828290508110156103045782828281811061028c57fe5b9050602002013573ffffffffffffffffffffffffffffffffffffffff1673ffffffffffffffffffffffffffffffffffffffff166108fc670de0b6b3a76400009081150290604051600060405180830381858888f193505050501580156102f6573d6000803e3d6000fd5b508080600101915050610275565b505050565b6000809054906101000a900473ffffffffffffffffffffffffffffffffffffffff1681565b60015481565b6002602052806000526040600020600091509050548156fea265627a7a723158205cb8b4eea2ad22d9a36790c826c9acfa069a2d26c34ae835925e6183c7c6247564736f6c63430005100032",
  "source": "pragma solidity >=0.4.21 <0.7.0;\n\ncontract Collector {\n    address public owner;\n    // address payable[] public artists;\n    uint256 public regFee;\n\n    mapping(address => uint256) public balance;\n\n    constructor() public {\n        owner = msg.sender;\n        regFee = 100 ether;\n    }\n\n    event reg(address indexed _from);\n\n    function register() external payable {\n        require(msg.value == 100 ether);\n        balance[address(this)] += regFee;\n        emit reg(msg.sender);\n    }\n\n    function distribute(address payable[] calldata artists) external {\n        for (uint256 i = 0; i < artists.length; i++) {\n            artists[i].transfer(1 ether);\n        }\n    }\n}\n",
  "sourcePath": "/Users/praneethg/Bitify/music-app/contracts/Collector.sol",
  "compiler": {
    "name": "solc",
    "version": "0.5.16+commit.9c3226ce.Emscripten.clang"
  },
  "schemaVersion": "3.0.23",
  "updatedAt": "2020-06-15T23:04:39.061Z",
  "networkType": "ethereum",
  "devdoc": {
    "methods": {}
  },
  "userdoc": {
    "methods": {}
  }
}